{"contracts/Swap.sol":{"Swap":{"abi":[{"inputs":[{"internalType":"address","name":"_tokenIn","type":"address"},{"internalType":"address","name":"_tokenOut","type":"address"},{"internalType":"uint256","name":"_amountIn","type":"uint256"}],"name":"getAmountOutMin","outputs":[{"internalType":"uint256","name":"","type":"uint256"}],"stateMutability":"view","type":"function"},{"inputs":[{"internalType":"address","name":"_tokenIn","type":"address"},{"internalType":"address","name":"_tokenOut","type":"address"},{"internalType":"uint256","name":"_amountIn","type":"uint256"}],"name":"swap","outputs":[{"internalType":"uint256[]","name":"amounts","type":"uint256[]"}],"stateMutability":"payable","type":"function"}],"evm":{"bytecode":{"linkReferences":{},"object":"6080604052737a250d5630b4cf539739df2c5dacb4c659f2488d6000806101000a81548173ffffffffffffffffffffffffffffffffffffffff021916908373ffffffffffffffffffffffffffffffffffffffff16021790555034801561006457600080fd5b50610df1806100746000396000f3fe6080604052600436106100295760003560e01c80633c50eec11461002e578063df791e501461006b575b600080fd5b34801561003a57600080fd5b50610055600480360381019061005091906106bd565b61009b565b604051610062919061071f565b60405180910390f35b610085600480360381019061008091906106bd565b610261565b60405161009291906107f8565b60405180910390f35b600080600267ffffffffffffffff8111156100b9576100b861081a565b5b6040519080825280602002602001820160405280156100e75781602001602082028036833780820191505090505b50905084816000815181106100ff576100fe610849565b5b602002602001019073ffffffffffffffffffffffffffffffffffffffff16908173ffffffffffffffffffffffffffffffffffffffff1681525050838160018151811061014e5761014d610849565b5b602002602001019073ffffffffffffffffffffffffffffffffffffffff16908173ffffffffffffffffffffffffffffffffffffffff168152505060008060009054906101000a900473ffffffffffffffffffffffffffffffffffffffff1673ffffffffffffffffffffffffffffffffffffffff1663d06ca61f85846040518363ffffffff1660e01b81526004016101e6929190610936565b600060405180830381865afa158015610203573d6000803e3d6000fd5b505050506040513d6000823e3d601f19601f8201168201806040525081019061022c9190610aa5565b9050806001835161023d9190610b1d565b8151811061024e5761024d610849565b5b6020026020010151925050509392505050565b60608373ffffffffffffffffffffffffffffffffffffffff166323b872dd3330856040518463ffffffff1660e01b81526004016102a093929190610b60565b6020604051808303816000875af11580156102bf573d6000803e3d6000fd5b505050506040513d601f19601f820116820180604052508101906102e39190610bcf565b610322576040517f08c379a000000000000000000000000000000000000000000000000000000000815260040161031990610c7f565b60405180910390fd5b8373ffffffffffffffffffffffffffffffffffffffff1663095ea7b3737a250d5630b4cf539739df2c5dacb4c659f2488d846040518363ffffffff1660e01b8152600401610371929190610c9f565b6020604051808303816000875af1158015610390573d6000803e3d6000fd5b505050506040513d601f19601f820116820180604052508101906103b49190610bcf565b6103f3576040517f08c379a00000000000000000000000000000000000000000000000000000000081526004016103ea90610d14565b60405180910390fd5b6000600267ffffffffffffffff8111156104105761040f61081a565b5b60405190808252806020026020018201604052801561043e5781602001602082028036833780820191505090505b509050848160008151811061045657610455610849565b5b602002602001019073ffffffffffffffffffffffffffffffffffffffff16908173ffffffffffffffffffffffffffffffffffffffff168152505083816001815181106104a5576104a4610849565b5b602002602001019073ffffffffffffffffffffffffffffffffffffffff16908173ffffffffffffffffffffffffffffffffffffffff168152505060003073ffffffffffffffffffffffffffffffffffffffff16633c50eec18787876040518463ffffffff1660e01b815260040161051e93929190610b60565b602060405180830381865afa15801561053b573d6000803e3d6000fd5b505050506040513d601f19601f8201168201806040525081019061055f9190610d34565b905060008054906101000a900473ffffffffffffffffffffffffffffffffffffffff1673ffffffffffffffffffffffffffffffffffffffff166338ed173985838533426040518663ffffffff1660e01b81526004016105c2959493929190610d61565b6000604051808303816000875af11580156105e1573d6000803e3d6000fd5b505050506040513d6000823e3d601f19601f8201168201806040525081019061060a9190610aa5565b925050509392505050565b6000604051905090565b600080fd5b600080fd5b600073ffffffffffffffffffffffffffffffffffffffff82169050919050565b600061065482610629565b9050919050565b61066481610649565b811461066f57600080fd5b50565b6000813590506106818161065b565b92915050565b6000819050919050565b61069a81610687565b81146106a557600080fd5b50565b6000813590506106b781610691565b92915050565b6000806000606084860312156106d6576106d561061f565b5b60006106e486828701610672565b93505060206106f586828701610672565b9250506040610706868287016106a8565b9150509250925092565b61071981610687565b82525050565b60006020820190506107346000830184610710565b92915050565b600081519050919050565b600082825260208201905092915050565b6000819050602082019050919050565b61076f81610687565b82525050565b60006107818383610766565b60208301905092915050565b6000602082019050919050565b60006107a58261073a565b6107af8185610745565b93506107ba83610756565b8060005b838110156107eb5781516107d28882610775565b97506107dd8361078d565b9250506001810190506107be565b5085935050505092915050565b60006020820190508181036000830152610812818461079a565b905092915050565b7f4e487b7100000000000000000000000000000000000000000000000000000000600052604160045260246000fd5b7f4e487b7100000000000000000000000000000000000000000000000000000000600052603260045260246000fd5b600081519050919050565b600082825260208201905092915050565b6000819050602082019050919050565b6108ad81610649565b82525050565b60006108bf83836108a4565b60208301905092915050565b6000602082019050919050565b60006108e382610878565b6108ed8185610883565b93506108f883610894565b8060005b8381101561092957815161091088826108b3565b975061091b836108cb565b9250506001810190506108fc565b5085935050505092915050565b600060408201905061094b6000830185610710565b818103602083015261095d81846108d8565b90509392505050565b600080fd5b6000601f19601f8301169050919050565b6109858261096b565b810181811067ffffffffffffffff821117156109a4576109a361081a565b5b80604052505050565b60006109b7610615565b90506109c3828261097c565b919050565b600067ffffffffffffffff8211156109e3576109e261081a565b5b602082029050602081019050919050565b600080fd5b600081519050610a0881610691565b92915050565b6000610a21610a1c846109c8565b6109ad565b90508083825260208201905060208402830185811115610a4457610a436109f4565b5b835b81811015610a6d5780610a5988826109f9565b845260208401935050602081019050610a46565b5050509392505050565b600082601f830112610a8c57610a8b610966565b5b8151610a9c848260208601610a0e565b91505092915050565b600060208284031215610abb57610aba61061f565b5b600082015167ffffffffffffffff811115610ad957610ad8610624565b5b610ae584828501610a77565b91505092915050565b7f4e487b7100000000000000000000000000000000000000000000000000000000600052601160045260246000fd5b6000610b2882610687565b9150610b3383610687565b9250828203905081811115610b4b57610b4a610aee565b5b92915050565b610b5a81610649565b82525050565b6000606082019050610b756000830186610b51565b610b826020830185610b51565b610b8f6040830184610710565b949350505050565b60008115159050919050565b610bac81610b97565b8114610bb757600080fd5b50565b600081519050610bc981610ba3565b92915050565b600060208284031215610be557610be461061f565b5b6000610bf384828501610bba565b91505092915050565b600082825260208201905092915050565b7f546f6b656e7320636f756c64206e6f74206265207472616e736665727265642060008201527f66726f6d207468652073656e6465720000000000000000000000000000000000602082015250565b6000610c69602f83610bfc565b9150610c7482610c0d565b604082019050919050565b60006020820190508181036000830152610c9881610c5c565b9050919050565b6000604082019050610cb46000830185610b51565b610cc16020830184610710565b9392505050565b7f417070726f76616c2072657175657374206661696c6564000000000000000000600082015250565b6000610cfe601783610bfc565b9150610d0982610cc8565b602082019050919050565b60006020820190508181036000830152610d2d81610cf1565b9050919050565b600060208284031215610d4a57610d4961061f565b5b6000610d58848285016109f9565b91505092915050565b600060a082019050610d766000830188610710565b610d836020830187610710565b8181036040830152610d9581866108d8565b9050610da46060830185610b51565b610db16080830184610710565b969550505050505056fea26469706673582212204bf3b19e2c8edf7190a101434800d998155f35c730f0a6dae43de65e1f3b780364736f6c63430008110033","opcodes":"PUSH1 0x80 PUSH1 0x40 MSTORE PUSH20 0x7A250D5630B4CF539739DF2C5DACB4C659F2488D PUSH1 0x0 DUP1 PUSH2 0x100 EXP DUP2 SLOAD DUP2 PUSH20 0xFFFFFFFFFFFFFFFFFFFFFFFFFFFFFFFFFFFFFFFF MUL NOT AND SWAP1 DUP4 PUSH20 0xFFFFFFFFFFFFFFFFFFFFFFFFFFFFFFFFFFFFFFFF AND MUL OR SWAP1 SSTORE POP CALLVALUE DUP1 ISZERO PUSH2 0x64 JUMPI PUSH1 0x0 DUP1 REVERT JUMPDEST POP PUSH2 0xDF1 DUP1 PUSH2 0x74 PUSH1 0x0 CODECOPY PUSH1 0x0 RETURN INVALID PUSH1 0x80 PUSH1 0x40 MSTORE PUSH1 0x4 CALLDATASIZE LT PUSH2 0x29 JUMPI PUSH1 0x0 CALLDATALOAD PUSH1 0xE0 SHR DUP1 PUSH4 0x3C50EEC1 EQ PUSH2 0x2E JUMPI DUP1 PUSH4 0xDF791E50 EQ PUSH2 0x6B JUMPI JUMPDEST PUSH1 0x0 DUP1 REVERT JUMPDEST CALLVALUE DUP1 ISZERO PUSH2 0x3A JUMPI PUSH1 0x0 DUP1 REVERT JUMPDEST POP PUSH2 0x55 PUSH1 0x4 DUP1 CALLDATASIZE SUB DUP2 ADD SWAP1 PUSH2 0x50 SWAP2 SWAP1 PUSH2 0x6BD JUMP JUMPDEST PUSH2 0x9B JUMP JUMPDEST PUSH1 0x40 MLOAD PUSH2 0x62 SWAP2 SWAP1 PUSH2 0x71F JUMP JUMPDEST PUSH1 0x40 MLOAD DUP1 SWAP2 SUB SWAP1 RETURN JUMPDEST PUSH2 0x85 PUSH1 0x4 DUP1 CALLDATASIZE SUB DUP2 ADD SWAP1 PUSH2 0x80 SWAP2 SWAP1 PUSH2 0x6BD JUMP JUMPDEST PUSH2 0x261 JUMP JUMPDEST PUSH1 0x40 MLOAD PUSH2 0x92 SWAP2 SWAP1 PUSH2 0x7F8 JUMP JUMPDEST PUSH1 0x40 MLOAD DUP1 SWAP2 SUB SWAP1 RETURN JUMPDEST PUSH1 0x0 DUP1 PUSH1 0x2 PUSH8 0xFFFFFFFFFFFFFFFF DUP2 GT ISZERO PUSH2 0xB9 JUMPI PUSH2 0xB8 PUSH2 0x81A JUMP JUMPDEST JUMPDEST PUSH1 0x40 MLOAD SWAP1 DUP1 DUP3 MSTORE DUP1 PUSH1 0x20 MUL PUSH1 0x20 ADD DUP3 ADD PUSH1 0x40 MSTORE DUP1 ISZERO PUSH2 0xE7 JUMPI DUP2 PUSH1 0x20 ADD PUSH1 0x20 DUP3 MUL DUP1 CALLDATASIZE DUP4 CALLDATACOPY DUP1 DUP3 ADD SWAP2 POP POP SWAP1 POP JUMPDEST POP SWAP1 POP DUP5 DUP2 PUSH1 0x0 DUP2 MLOAD DUP2 LT PUSH2 0xFF JUMPI PUSH2 0xFE PUSH2 0x849 JUMP JUMPDEST JUMPDEST PUSH1 0x20 MUL PUSH1 0x20 ADD ADD SWAP1 PUSH20 0xFFFFFFFFFFFFFFFFFFFFFFFFFFFFFFFFFFFFFFFF AND SWAP1 DUP2 PUSH20 0xFFFFFFFFFFFFFFFFFFFFFFFFFFFFFFFFFFFFFFFF AND DUP2 MSTORE POP POP DUP4 DUP2 PUSH1 0x1 DUP2 MLOAD DUP2 LT PUSH2 0x14E JUMPI PUSH2 0x14D PUSH2 0x849 JUMP JUMPDEST JUMPDEST PUSH1 0x20 MUL PUSH1 0x20 ADD ADD SWAP1 PUSH20 0xFFFFFFFFFFFFFFFFFFFFFFFFFFFFFFFFFFFFFFFF AND SWAP1 DUP2 PUSH20 0xFFFFFFFFFFFFFFFFFFFFFFFFFFFFFFFFFFFFFFFF AND DUP2 MSTORE POP POP PUSH1 0x0 DUP1 PUSH1 0x0 SWAP1 SLOAD SWAP1 PUSH2 0x100 EXP SWAP1 DIV PUSH20 0xFFFFFFFFFFFFFFFFFFFFFFFFFFFFFFFFFFFFFFFF AND PUSH20 0xFFFFFFFFFFFFFFFFFFFFFFFFFFFFFFFFFFFFFFFF AND PUSH4 0xD06CA61F DUP6 DUP5 PUSH1 0x40 MLOAD DUP4 PUSH4 0xFFFFFFFF AND PUSH1 0xE0 SHL DUP2 MSTORE PUSH1 0x4 ADD PUSH2 0x1E6 SWAP3 SWAP2 SWAP1 PUSH2 0x936 JUMP JUMPDEST PUSH1 0x0 PUSH1 0x40 MLOAD DUP1 DUP4 SUB DUP2 DUP7 GAS STATICCALL ISZERO DUP1 ISZERO PUSH2 0x203 JUMPI RETURNDATASIZE PUSH1 0x0 DUP1 RETURNDATACOPY RETURNDATASIZE PUSH1 0x0 REVERT JUMPDEST POP POP POP POP PUSH1 0x40 MLOAD RETURNDATASIZE PUSH1 0x0 DUP3 RETURNDATACOPY RETURNDATASIZE PUSH1 0x1F NOT PUSH1 0x1F DUP3 ADD AND DUP3 ADD DUP1 PUSH1 0x40 MSTORE POP DUP2 ADD SWAP1 PUSH2 0x22C SWAP2 SWAP1 PUSH2 0xAA5 JUMP JUMPDEST SWAP1 POP DUP1 PUSH1 0x1 DUP4 MLOAD PUSH2 0x23D SWAP2 SWAP1 PUSH2 0xB1D JUMP JUMPDEST DUP2 MLOAD DUP2 LT PUSH2 0x24E JUMPI PUSH2 0x24D PUSH2 0x849 JUMP JUMPDEST JUMPDEST PUSH1 0x20 MUL PUSH1 0x20 ADD ADD MLOAD SWAP3 POP POP POP SWAP4 SWAP3 POP POP POP JUMP JUMPDEST PUSH1 0x60 DUP4 PUSH20 0xFFFFFFFFFFFFFFFFFFFFFFFFFFFFFFFFFFFFFFFF AND PUSH4 0x23B872DD CALLER ADDRESS DUP6 PUSH1 0x40 MLOAD DUP5 PUSH4 0xFFFFFFFF AND PUSH1 0xE0 SHL DUP2 MSTORE PUSH1 0x4 ADD PUSH2 0x2A0 SWAP4 SWAP3 SWAP2 SWAP1 PUSH2 0xB60 JUMP JUMPDEST PUSH1 0x20 PUSH1 0x40 MLOAD DUP1 DUP4 SUB DUP2 PUSH1 0x0 DUP8 GAS CALL ISZERO DUP1 ISZERO PUSH2 0x2BF JUMPI RETURNDATASIZE PUSH1 0x0 DUP1 RETURNDATACOPY RETURNDATASIZE PUSH1 0x0 REVERT JUMPDEST POP POP POP POP PUSH1 0x40 MLOAD RETURNDATASIZE PUSH1 0x1F NOT PUSH1 0x1F DUP3 ADD AND DUP3 ADD DUP1 PUSH1 0x40 MSTORE POP DUP2 ADD SWAP1 PUSH2 0x2E3 SWAP2 SWAP1 PUSH2 0xBCF JUMP JUMPDEST PUSH2 0x322 JUMPI PUSH1 0x40 MLOAD PUSH32 0x8C379A000000000000000000000000000000000000000000000000000000000 DUP2 MSTORE PUSH1 0x4 ADD PUSH2 0x319 SWAP1 PUSH2 0xC7F JUMP JUMPDEST PUSH1 0x40 MLOAD DUP1 SWAP2 SUB SWAP1 REVERT JUMPDEST DUP4 PUSH20 0xFFFFFFFFFFFFFFFFFFFFFFFFFFFFFFFFFFFFFFFF AND PUSH4 0x95EA7B3 PUSH20 0x7A250D5630B4CF539739DF2C5DACB4C659F2488D DUP5 PUSH1 0x40 MLOAD DUP4 PUSH4 0xFFFFFFFF AND PUSH1 0xE0 SHL DUP2 MSTORE PUSH1 0x4 ADD PUSH2 0x371 SWAP3 SWAP2 SWAP1 PUSH2 0xC9F JUMP JUMPDEST PUSH1 0x20 PUSH1 0x40 MLOAD DUP1 DUP4 SUB DUP2 PUSH1 0x0 DUP8 GAS CALL ISZERO DUP1 ISZERO PUSH2 0x390 JUMPI RETURNDATASIZE PUSH1 0x0 DUP1 RETURNDATACOPY RETURNDATASIZE PUSH1 0x0 REVERT JUMPDEST POP POP POP POP PUSH1 0x40 MLOAD RETURNDATASIZE PUSH1 0x1F NOT PUSH1 0x1F DUP3 ADD AND DUP3 ADD DUP1 PUSH1 0x40 MSTORE POP DUP2 ADD SWAP1 PUSH2 0x3B4 SWAP2 SWAP1 PUSH2 0xBCF JUMP JUMPDEST PUSH2 0x3F3 JUMPI PUSH1 0x40 MLOAD PUSH32 0x8C379A000000000000000000000000000000000000000000000000000000000 DUP2 MSTORE PUSH1 0x4 ADD PUSH2 0x3EA SWAP1 PUSH2 0xD14 JUMP JUMPDEST PUSH1 0x40 MLOAD DUP1 SWAP2 SUB SWAP1 REVERT JUMPDEST PUSH1 0x0 PUSH1 0x2 PUSH8 0xFFFFFFFFFFFFFFFF DUP2 GT ISZERO PUSH2 0x410 JUMPI PUSH2 0x40F PUSH2 0x81A JUMP JUMPDEST JUMPDEST PUSH1 0x40 MLOAD SWAP1 DUP1 DUP3 MSTORE DUP1 PUSH1 0x20 MUL PUSH1 0x20 ADD DUP3 ADD PUSH1 0x40 MSTORE DUP1 ISZERO PUSH2 0x43E JUMPI DUP2 PUSH1 0x20 ADD PUSH1 0x20 DUP3 MUL DUP1 CALLDATASIZE DUP4 CALLDATACOPY DUP1 DUP3 ADD SWAP2 POP POP SWAP1 POP JUMPDEST POP SWAP1 POP DUP5 DUP2 PUSH1 0x0 DUP2 MLOAD DUP2 LT PUSH2 0x456 JUMPI PUSH2 0x455 PUSH2 0x849 JUMP JUMPDEST JUMPDEST PUSH1 0x20 MUL PUSH1 0x20 ADD ADD SWAP1 PUSH20 0xFFFFFFFFFFFFFFFFFFFFFFFFFFFFFFFFFFFFFFFF AND SWAP1 DUP2 PUSH20 0xFFFFFFFFFFFFFFFFFFFFFFFFFFFFFFFFFFFFFFFF AND DUP2 MSTORE POP POP DUP4 DUP2 PUSH1 0x1 DUP2 MLOAD DUP2 LT PUSH2 0x4A5 JUMPI PUSH2 0x4A4 PUSH2 0x849 JUMP JUMPDEST JUMPDEST PUSH1 0x20 MUL PUSH1 0x20 ADD ADD SWAP1 PUSH20 0xFFFFFFFFFFFFFFFFFFFFFFFFFFFFFFFFFFFFFFFF AND SWAP1 DUP2 PUSH20 0xFFFFFFFFFFFFFFFFFFFFFFFFFFFFFFFFFFFFFFFF AND DUP2 MSTORE POP POP PUSH1 0x0 ADDRESS PUSH20 0xFFFFFFFFFFFFFFFFFFFFFFFFFFFFFFFFFFFFFFFF AND PUSH4 0x3C50EEC1 DUP8 DUP8 DUP8 PUSH1 0x40 MLOAD DUP5 PUSH4 0xFFFFFFFF AND PUSH1 0xE0 SHL DUP2 MSTORE PUSH1 0x4 ADD PUSH2 0x51E SWAP4 SWAP3 SWAP2 SWAP1 PUSH2 0xB60 JUMP JUMPDEST PUSH1 0x20 PUSH1 0x40 MLOAD DUP1 DUP4 SUB DUP2 DUP7 GAS STATICCALL ISZERO DUP1 ISZERO PUSH2 0x53B JUMPI RETURNDATASIZE PUSH1 0x0 DUP1 RETURNDATACOPY RETURNDATASIZE PUSH1 0x0 REVERT JUMPDEST POP POP POP POP PUSH1 0x40 MLOAD RETURNDATASIZE PUSH1 0x1F NOT PUSH1 0x1F DUP3 ADD AND DUP3 ADD DUP1 PUSH1 0x40 MSTORE POP DUP2 ADD SWAP1 PUSH2 0x55F SWAP2 SWAP1 PUSH2 0xD34 JUMP JUMPDEST SWAP1 POP PUSH1 0x0 DUP1 SLOAD SWAP1 PUSH2 0x100 EXP SWAP1 DIV PUSH20 0xFFFFFFFFFFFFFFFFFFFFFFFFFFFFFFFFFFFFFFFF AND PUSH20 0xFFFFFFFFFFFFFFFFFFFFFFFFFFFFFFFFFFFFFFFF AND PUSH4 0x38ED1739 DUP6 DUP4 DUP6 CALLER TIMESTAMP PUSH1 0x40 MLOAD DUP7 PUSH4 0xFFFFFFFF AND PUSH1 0xE0 SHL DUP2 MSTORE PUSH1 0x4 ADD PUSH2 0x5C2 SWAP6 SWAP5 SWAP4 SWAP3 SWAP2 SWAP1 PUSH2 0xD61 JUMP JUMPDEST PUSH1 0x0 PUSH1 0x40 MLOAD DUP1 DUP4 SUB DUP2 PUSH1 0x0 DUP8 GAS CALL ISZERO DUP1 ISZERO PUSH2 0x5E1 JUMPI RETURNDATASIZE PUSH1 0x0 DUP1 RETURNDATACOPY RETURNDATASIZE PUSH1 0x0 REVERT JUMPDEST POP POP POP POP PUSH1 0x40 MLOAD RETURNDATASIZE PUSH1 0x0 DUP3 RETURNDATACOPY RETURNDATASIZE PUSH1 0x1F NOT PUSH1 0x1F DUP3 ADD AND DUP3 ADD DUP1 PUSH1 0x40 MSTORE POP DUP2 ADD SWAP1 PUSH2 0x60A SWAP2 SWAP1 PUSH2 0xAA5 JUMP JUMPDEST SWAP3 POP POP POP SWAP4 SWAP3 POP POP POP JUMP JUMPDEST PUSH1 0x0 PUSH1 0x40 MLOAD SWAP1 POP SWAP1 JUMP JUMPDEST PUSH1 0x0 DUP1 REVERT JUMPDEST PUSH1 0x0 DUP1 REVERT JUMPDEST PUSH1 0x0 PUSH20 0xFFFFFFFFFFFFFFFFFFFFFFFFFFFFFFFFFFFFFFFF DUP3 AND SWAP1 POP SWAP2 SWAP1 POP JUMP JUMPDEST PUSH1 0x0 PUSH2 0x654 DUP3 PUSH2 0x629 JUMP JUMPDEST SWAP1 POP SWAP2 SWAP1 POP JUMP JUMPDEST PUSH2 0x664 DUP2 PUSH2 0x649 JUMP JUMPDEST DUP2 EQ PUSH2 0x66F JUMPI PUSH1 0x0 DUP1 REVERT JUMPDEST POP JUMP JUMPDEST PUSH1 0x0 DUP2 CALLDATALOAD SWAP1 POP PUSH2 0x681 DUP2 PUSH2 0x65B JUMP JUMPDEST SWAP3 SWAP2 POP POP JUMP JUMPDEST PUSH1 0x0 DUP2 SWAP1 POP SWAP2 SWAP1 POP JUMP JUMPDEST PUSH2 0x69A DUP2 PUSH2 0x687 JUMP JUMPDEST DUP2 EQ PUSH2 0x6A5 JUMPI PUSH1 0x0 DUP1 REVERT JUMPDEST POP JUMP JUMPDEST PUSH1 0x0 DUP2 CALLDATALOAD SWAP1 POP PUSH2 0x6B7 DUP2 PUSH2 0x691 JUMP JUMPDEST SWAP3 SWAP2 POP POP JUMP JUMPDEST PUSH1 0x0 DUP1 PUSH1 0x0 PUSH1 0x60 DUP5 DUP7 SUB SLT ISZERO PUSH2 0x6D6 JUMPI PUSH2 0x6D5 PUSH2 0x61F JUMP JUMPDEST JUMPDEST PUSH1 0x0 PUSH2 0x6E4 DUP7 DUP3 DUP8 ADD PUSH2 0x672 JUMP JUMPDEST SWAP4 POP POP PUSH1 0x20 PUSH2 0x6F5 DUP7 DUP3 DUP8 ADD PUSH2 0x672 JUMP JUMPDEST SWAP3 POP POP PUSH1 0x40 PUSH2 0x706 DUP7 DUP3 DUP8 ADD PUSH2 0x6A8 JUMP JUMPDEST SWAP2 POP POP SWAP3 POP SWAP3 POP SWAP3 JUMP JUMPDEST PUSH2 0x719 DUP2 PUSH2 0x687 JUMP JUMPDEST DUP3 MSTORE POP POP JUMP JUMPDEST PUSH1 0x0 PUSH1 0x20 DUP3 ADD SWAP1 POP PUSH2 0x734 PUSH1 0x0 DUP4 ADD DUP5 PUSH2 0x710 JUMP JUMPDEST SWAP3 SWAP2 POP POP JUMP JUMPDEST PUSH1 0x0 DUP2 MLOAD SWAP1 POP SWAP2 SWAP1 POP JUMP JUMPDEST PUSH1 0x0 DUP3 DUP3 MSTORE PUSH1 0x20 DUP3 ADD SWAP1 POP SWAP3 SWAP2 POP POP JUMP JUMPDEST PUSH1 0x0 DUP2 SWAP1 POP PUSH1 0x20 DUP3 ADD SWAP1 POP SWAP2 SWAP1 POP JUMP JUMPDEST PUSH2 0x76F DUP2 PUSH2 0x687 JUMP JUMPDEST DUP3 MSTORE POP POP JUMP JUMPDEST PUSH1 0x0 PUSH2 0x781 DUP4 DUP4 PUSH2 0x766 JUMP JUMPDEST PUSH1 0x20 DUP4 ADD SWAP1 POP SWAP3 SWAP2 POP POP JUMP JUMPDEST PUSH1 0x0 PUSH1 0x20 DUP3 ADD SWAP1 POP SWAP2 SWAP1 POP JUMP JUMPDEST PUSH1 0x0 PUSH2 0x7A5 DUP3 PUSH2 0x73A JUMP JUMPDEST PUSH2 0x7AF DUP2 DUP6 PUSH2 0x745 JUMP JUMPDEST SWAP4 POP PUSH2 0x7BA DUP4 PUSH2 0x756 JUMP JUMPDEST DUP1 PUSH1 0x0 JUMPDEST DUP4 DUP2 LT ISZERO PUSH2 0x7EB JUMPI DUP2 MLOAD PUSH2 0x7D2 DUP9 DUP3 PUSH2 0x775 JUMP JUMPDEST SWAP8 POP PUSH2 0x7DD DUP4 PUSH2 0x78D JUMP JUMPDEST SWAP3 POP POP PUSH1 0x1 DUP2 ADD SWAP1 POP PUSH2 0x7BE JUMP JUMPDEST POP DUP6 SWAP4 POP POP POP POP SWAP3 SWAP2 POP POP JUMP JUMPDEST PUSH1 0x0 PUSH1 0x20 DUP3 ADD SWAP1 POP DUP2 DUP2 SUB PUSH1 0x0 DUP4 ADD MSTORE PUSH2 0x812 DUP2 DUP5 PUSH2 0x79A JUMP JUMPDEST SWAP1 POP SWAP3 SWAP2 POP POP JUMP JUMPDEST PUSH32 0x4E487B7100000000000000000000000000000000000000000000000000000000 PUSH1 0x0 MSTORE PUSH1 0x41 PUSH1 0x4 MSTORE PUSH1 0x24 PUSH1 0x0 REVERT JUMPDEST PUSH32 0x4E487B7100000000000000000000000000000000000000000000000000000000 PUSH1 0x0 MSTORE PUSH1 0x32 PUSH1 0x4 MSTORE PUSH1 0x24 PUSH1 0x0 REVERT JUMPDEST PUSH1 0x0 DUP2 MLOAD SWAP1 POP SWAP2 SWAP1 POP JUMP JUMPDEST PUSH1 0x0 DUP3 DUP3 MSTORE PUSH1 0x20 DUP3 ADD SWAP1 POP SWAP3 SWAP2 POP POP JUMP JUMPDEST PUSH1 0x0 DUP2 SWAP1 POP PUSH1 0x20 DUP3 ADD SWAP1 POP SWAP2 SWAP1 POP JUMP JUMPDEST PUSH2 0x8AD DUP2 PUSH2 0x649 JUMP JUMPDEST DUP3 MSTORE POP POP JUMP JUMPDEST PUSH1 0x0 PUSH2 0x8BF DUP4 DUP4 PUSH2 0x8A4 JUMP JUMPDEST PUSH1 0x20 DUP4 ADD SWAP1 POP SWAP3 SWAP2 POP POP JUMP JUMPDEST PUSH1 0x0 PUSH1 0x20 DUP3 ADD SWAP1 POP SWAP2 SWAP1 POP JUMP JUMPDEST PUSH1 0x0 PUSH2 0x8E3 DUP3 PUSH2 0x878 JUMP JUMPDEST PUSH2 0x8ED DUP2 DUP6 PUSH2 0x883 JUMP JUMPDEST SWAP4 POP PUSH2 0x8F8 DUP4 PUSH2 0x894 JUMP JUMPDEST DUP1 PUSH1 0x0 JUMPDEST DUP4 DUP2 LT ISZERO PUSH2 0x929 JUMPI DUP2 MLOAD PUSH2 0x910 DUP9 DUP3 PUSH2 0x8B3 JUMP JUMPDEST SWAP8 POP PUSH2 0x91B DUP4 PUSH2 0x8CB JUMP JUMPDEST SWAP3 POP POP PUSH1 0x1 DUP2 ADD SWAP1 POP PUSH2 0x8FC JUMP JUMPDEST POP DUP6 SWAP4 POP POP POP POP SWAP3 SWAP2 POP POP JUMP JUMPDEST PUSH1 0x0 PUSH1 0x40 DUP3 ADD SWAP1 POP PUSH2 0x94B PUSH1 0x0 DUP4 ADD DUP6 PUSH2 0x710 JUMP JUMPDEST DUP2 DUP2 SUB PUSH1 0x20 DUP4 ADD MSTORE PUSH2 0x95D DUP2 DUP5 PUSH2 0x8D8 JUMP JUMPDEST SWAP1 POP SWAP4 SWAP3 POP POP POP JUMP JUMPDEST PUSH1 0x0 DUP1 REVERT JUMPDEST PUSH1 0x0 PUSH1 0x1F NOT PUSH1 0x1F DUP4 ADD AND SWAP1 POP SWAP2 SWAP1 POP JUMP JUMPDEST PUSH2 0x985 DUP3 PUSH2 0x96B JUMP JUMPDEST DUP2 ADD DUP2 DUP2 LT PUSH8 0xFFFFFFFFFFFFFFFF DUP3 GT OR ISZERO PUSH2 0x9A4 JUMPI PUSH2 0x9A3 PUSH2 0x81A JUMP JUMPDEST JUMPDEST DUP1 PUSH1 0x40 MSTORE POP POP POP JUMP JUMPDEST PUSH1 0x0 PUSH2 0x9B7 PUSH2 0x615 JUMP JUMPDEST SWAP1 POP PUSH2 0x9C3 DUP3 DUP3 PUSH2 0x97C JUMP JUMPDEST SWAP2 SWAP1 POP JUMP JUMPDEST PUSH1 0x0 PUSH8 0xFFFFFFFFFFFFFFFF DUP3 GT ISZERO PUSH2 0x9E3 JUMPI PUSH2 0x9E2 PUSH2 0x81A JUMP JUMPDEST JUMPDEST PUSH1 0x20 DUP3 MUL SWAP1 POP PUSH1 0x20 DUP2 ADD SWAP1 POP SWAP2 SWAP1 POP JUMP JUMPDEST PUSH1 0x0 DUP1 REVERT JUMPDEST PUSH1 0x0 DUP2 MLOAD SWAP1 POP PUSH2 0xA08 DUP2 PUSH2 0x691 JUMP JUMPDEST SWAP3 SWAP2 POP POP JUMP JUMPDEST PUSH1 0x0 PUSH2 0xA21 PUSH2 0xA1C DUP5 PUSH2 0x9C8 JUMP JUMPDEST PUSH2 0x9AD JUMP JUMPDEST SWAP1 POP DUP1 DUP4 DUP3 MSTORE PUSH1 0x20 DUP3 ADD SWAP1 POP PUSH1 0x20 DUP5 MUL DUP4 ADD DUP6 DUP2 GT ISZERO PUSH2 0xA44 JUMPI PUSH2 0xA43 PUSH2 0x9F4 JUMP JUMPDEST JUMPDEST DUP4 JUMPDEST DUP2 DUP2 LT ISZERO PUSH2 0xA6D JUMPI DUP1 PUSH2 0xA59 DUP9 DUP3 PUSH2 0x9F9 JUMP JUMPDEST DUP5 MSTORE PUSH1 0x20 DUP5 ADD SWAP4 POP POP PUSH1 0x20 DUP2 ADD SWAP1 POP PUSH2 0xA46 JUMP JUMPDEST POP POP POP SWAP4 SWAP3 POP POP POP JUMP JUMPDEST PUSH1 0x0 DUP3 PUSH1 0x1F DUP4 ADD SLT PUSH2 0xA8C JUMPI PUSH2 0xA8B PUSH2 0x966 JUMP JUMPDEST JUMPDEST DUP2 MLOAD PUSH2 0xA9C DUP5 DUP3 PUSH1 0x20 DUP7 ADD PUSH2 0xA0E JUMP JUMPDEST SWAP2 POP POP SWAP3 SWAP2 POP POP JUMP JUMPDEST PUSH1 0x0 PUSH1 0x20 DUP3 DUP5 SUB SLT ISZERO PUSH2 0xABB JUMPI PUSH2 0xABA PUSH2 0x61F JUMP JUMPDEST JUMPDEST PUSH1 0x0 DUP3 ADD MLOAD PUSH8 0xFFFFFFFFFFFFFFFF DUP2 GT ISZERO PUSH2 0xAD9 JUMPI PUSH2 0xAD8 PUSH2 0x624 JUMP JUMPDEST JUMPDEST PUSH2 0xAE5 DUP5 DUP3 DUP6 ADD PUSH2 0xA77 JUMP JUMPDEST SWAP2 POP POP SWAP3 SWAP2 POP POP JUMP JUMPDEST PUSH32 0x4E487B7100000000000000000000000000000000000000000000000000000000 PUSH1 0x0 MSTORE PUSH1 0x11 PUSH1 0x4 MSTORE PUSH1 0x24 PUSH1 0x0 REVERT JUMPDEST PUSH1 0x0 PUSH2 0xB28 DUP3 PUSH2 0x687 JUMP JUMPDEST SWAP2 POP PUSH2 0xB33 DUP4 PUSH2 0x687 JUMP JUMPDEST SWAP3 POP DUP3 DUP3 SUB SWAP1 POP DUP2 DUP2 GT ISZERO PUSH2 0xB4B JUMPI PUSH2 0xB4A PUSH2 0xAEE JUMP JUMPDEST JUMPDEST SWAP3 SWAP2 POP POP JUMP JUMPDEST PUSH2 0xB5A DUP2 PUSH2 0x649 JUMP JUMPDEST DUP3 MSTORE POP POP JUMP JUMPDEST PUSH1 0x0 PUSH1 0x60 DUP3 ADD SWAP1 POP PUSH2 0xB75 PUSH1 0x0 DUP4 ADD DUP7 PUSH2 0xB51 JUMP JUMPDEST PUSH2 0xB82 PUSH1 0x20 DUP4 ADD DUP6 PUSH2 0xB51 JUMP JUMPDEST PUSH2 0xB8F PUSH1 0x40 DUP4 ADD DUP5 PUSH2 0x710 JUMP JUMPDEST SWAP5 SWAP4 POP POP POP POP JUMP JUMPDEST PUSH1 0x0 DUP2 ISZERO ISZERO SWAP1 POP SWAP2 SWAP1 POP JUMP JUMPDEST PUSH2 0xBAC DUP2 PUSH2 0xB97 JUMP JUMPDEST DUP2 EQ PUSH2 0xBB7 JUMPI PUSH1 0x0 DUP1 REVERT JUMPDEST POP JUMP JUMPDEST PUSH1 0x0 DUP2 MLOAD SWAP1 POP PUSH2 0xBC9 DUP2 PUSH2 0xBA3 JUMP JUMPDEST SWAP3 SWAP2 POP POP JUMP JUMPDEST PUSH1 0x0 PUSH1 0x20 DUP3 DUP5 SUB SLT ISZERO PUSH2 0xBE5 JUMPI PUSH2 0xBE4 PUSH2 0x61F JUMP JUMPDEST JUMPDEST PUSH1 0x0 PUSH2 0xBF3 DUP5 DUP3 DUP6 ADD PUSH2 0xBBA JUMP JUMPDEST SWAP2 POP POP SWAP3 SWAP2 POP POP JUMP JUMPDEST PUSH1 0x0 DUP3 DUP3 MSTORE PUSH1 0x20 DUP3 ADD SWAP1 POP SWAP3 SWAP2 POP POP JUMP JUMPDEST PUSH32 0x546F6B656E7320636F756C64206E6F74206265207472616E7366657272656420 PUSH1 0x0 DUP3 ADD MSTORE PUSH32 0x66726F6D207468652073656E6465720000000000000000000000000000000000 PUSH1 0x20 DUP3 ADD MSTORE POP JUMP JUMPDEST PUSH1 0x0 PUSH2 0xC69 PUSH1 0x2F DUP4 PUSH2 0xBFC JUMP JUMPDEST SWAP2 POP PUSH2 0xC74 DUP3 PUSH2 0xC0D JUMP JUMPDEST PUSH1 0x40 DUP3 ADD SWAP1 POP SWAP2 SWAP1 POP JUMP JUMPDEST PUSH1 0x0 PUSH1 0x20 DUP3 ADD SWAP1 POP DUP2 DUP2 SUB PUSH1 0x0 DUP4 ADD MSTORE PUSH2 0xC98 DUP2 PUSH2 0xC5C JUMP JUMPDEST SWAP1 POP SWAP2 SWAP1 POP JUMP JUMPDEST PUSH1 0x0 PUSH1 0x40 DUP3 ADD SWAP1 POP PUSH2 0xCB4 PUSH1 0x0 DUP4 ADD DUP6 PUSH2 0xB51 JUMP JUMPDEST PUSH2 0xCC1 PUSH1 0x20 DUP4 ADD DUP5 PUSH2 0x710 JUMP JUMPDEST SWAP4 SWAP3 POP POP POP JUMP JUMPDEST PUSH32 0x417070726F76616C2072657175657374206661696C6564000000000000000000 PUSH1 0x0 DUP3 ADD MSTORE POP JUMP JUMPDEST PUSH1 0x0 PUSH2 0xCFE PUSH1 0x17 DUP4 PUSH2 0xBFC JUMP JUMPDEST SWAP2 POP PUSH2 0xD09 DUP3 PUSH2 0xCC8 JUMP JUMPDEST PUSH1 0x20 DUP3 ADD SWAP1 POP SWAP2 SWAP1 POP JUMP JUMPDEST PUSH1 0x0 PUSH1 0x20 DUP3 ADD SWAP1 POP DUP2 DUP2 SUB PUSH1 0x0 DUP4 ADD MSTORE PUSH2 0xD2D DUP2 PUSH2 0xCF1 JUMP JUMPDEST SWAP1 POP SWAP2 SWAP1 POP JUMP JUMPDEST PUSH1 0x0 PUSH1 0x20 DUP3 DUP5 SUB SLT ISZERO PUSH2 0xD4A JUMPI PUSH2 0xD49 PUSH2 0x61F JUMP JUMPDEST JUMPDEST PUSH1 0x0 PUSH2 0xD58 DUP5 DUP3 DUP6 ADD PUSH2 0x9F9 JUMP JUMPDEST SWAP2 POP POP SWAP3 SWAP2 POP POP JUMP JUMPDEST PUSH1 0x0 PUSH1 0xA0 DUP3 ADD SWAP1 POP PUSH2 0xD76 PUSH1 0x0 DUP4 ADD DUP9 PUSH2 0x710 JUMP JUMPDEST PUSH2 0xD83 PUSH1 0x20 DUP4 ADD DUP8 PUSH2 0x710 JUMP JUMPDEST DUP2 DUP2 SUB PUSH1 0x40 DUP4 ADD MSTORE PUSH2 0xD95 DUP2 DUP7 PUSH2 0x8D8 JUMP JUMPDEST SWAP1 POP PUSH2 0xDA4 PUSH1 0x60 DUP4 ADD DUP6 PUSH2 0xB51 JUMP JUMPDEST PUSH2 0xDB1 PUSH1 0x80 DUP4 ADD DUP5 PUSH2 0x710 JUMP JUMPDEST SWAP7 SWAP6 POP POP POP POP POP POP JUMP INVALID LOG2 PUSH5 0x6970667358 0x22 SLT KECCAK256 0x4B RETURN 0xB1 SWAP15 0x2C DUP15 0xDF PUSH18 0x90A101434800D998155F35C730F0A6DAE43D 0xE6 0x5E 0x1F EXTCODESIZE PUSH25 0x364736F6C6343000811003300000000000000000000000000 "},"methodIdentifiers":{"getAmountOutMin(address,address,uint256)":"3c50eec1","swap(address,address,uint256)":"df791e50"}}}}}