{
  "_format": "hh-sol-artifact-1",
  "contractName": "Wallet",
  "sourceName": "contracts/Wallet.sol",
  "abi": [
    {
      "inputs": [
        {
          "internalType": "address",
          "name": "_owner",
          "type": "address"
        }
      ],
      "stateMutability": "nonpayable",
      "type": "constructor"
    },
    {
      "inputs": [
        {
          "internalType": "address",
          "name": "_tokenContract",
          "type": "address"
        }
      ],
      "name": "getBalance",
      "outputs": [
        {
          "internalType": "uint256",
          "name": "",
          "type": "uint256"
        }
      ],
      "stateMutability": "view",
      "type": "function"
    },
    {
      "inputs": [],
      "name": "getWeiBalance",
      "outputs": [
        {
          "internalType": "uint256",
          "name": "",
          "type": "uint256"
        }
      ],
      "stateMutability": "view",
      "type": "function"
    },
    {
      "inputs": [],
      "name": "owner",
      "outputs": [
        {
          "internalType": "address payable",
          "name": "",
          "type": "address"
        }
      ],
      "stateMutability": "view",
      "type": "function"
    },
    {
      "inputs": [
        {
          "internalType": "uint256",
          "name": "_amount",
          "type": "uint256"
        },
        {
          "internalType": "address",
          "name": "_recipient",
          "type": "address"
        },
        {
          "internalType": "address",
          "name": "_tokenContract",
          "type": "address"
        }
      ],
      "name": "sendToken",
      "outputs": [],
      "stateMutability": "payable",
      "type": "function"
    },
    {
      "inputs": [
        {
          "internalType": "uint256",
          "name": "_amount",
          "type": "uint256"
        },
        {
          "internalType": "address",
          "name": "_recipient",
          "type": "address"
        }
      ],
      "name": "sendWei",
      "outputs": [],
      "stateMutability": "payable",
      "type": "function"
    },
    {
      "inputs": [
        {
          "internalType": "uint256",
          "name": "_amount",
          "type": "uint256"
        },
        {
          "internalType": "address",
          "name": "_tokenIn",
          "type": "address"
        },
        {
          "internalType": "address",
          "name": "_tokenOut",
          "type": "address"
        }
      ],
      "name": "swap",
      "outputs": [
        {
          "internalType": "uint256[]",
          "name": "amounts",
          "type": "uint256[]"
        }
      ],
      "stateMutability": "payable",
      "type": "function"
    },
    {
      "inputs": [
        {
          "internalType": "uint256",
          "name": "_amount",
          "type": "uint256"
        },
        {
          "internalType": "address",
          "name": "_tokenContract",
          "type": "address"
        }
      ],
      "name": "withdrawERC20",
      "outputs": [],
      "stateMutability": "payable",
      "type": "function"
    },
    {
      "inputs": [
        {
          "internalType": "uint256",
          "name": "_amount",
          "type": "uint256"
        }
      ],
      "name": "withdrawWei",
      "outputs": [],
      "stateMutability": "payable",
      "type": "function"
    },
    {
      "stateMutability": "payable",
      "type": "receive"
    }
  ],
  "bytecode": "0x60806040523480156200001157600080fd5b50604051620021ab380380620021ab8339818101604052810190620000379190620000e8565b806000806101000a81548173ffffffffffffffffffffffffffffffffffffffff021916908373ffffffffffffffffffffffffffffffffffffffff160217905550506200011a565b600080fd5b600073ffffffffffffffffffffffffffffffffffffffff82169050919050565b6000620000b08262000083565b9050919050565b620000c281620000a3565b8114620000ce57600080fd5b50565b600081519050620000e281620000b7565b92915050565b6000602082840312156200010157620001006200007e565b5b60006200011184828501620000d1565b91505092915050565b612081806200012a6000396000f3fe60806040526004361061007f5760003560e01c80639fbf50731161004e5780639fbf50731461011e578063b63ed4051461013a578063c20938e014610165578063f8b2cb4f1461018157610086565b80630d6f85631461008b578063206c9659146100a75780632b7f0923146100c35780638da5cb5b146100f357610086565b3661008657005b600080fd5b6100a560048036038101906100a09190610b56565b6101be565b005b6100c160048036038101906100bc9190610be1565b61038a565b005b6100dd60048036038101906100d89190610c21565b6104c9565b6040516100ea9190610d32565b60405180910390f35b3480156100ff57600080fd5b50610108610686565b6040516101159190610d75565b60405180910390f35b61013860048036038101906101339190610c21565b6106aa565b005b34801561014657600080fd5b5061014f61083d565b60405161015c9190610d9f565b60405180910390f35b61017f600480360381019061017a9190610be1565b610845565b005b34801561018d57600080fd5b506101a860048036038101906101a39190610dba565b610a65565b6040516101b59190610d9f565b60405180910390f35b60008054906101000a900473ffffffffffffffffffffffffffffffffffffffff1673ffffffffffffffffffffffffffffffffffffffff163373ffffffffffffffffffffffffffffffffffffffff161461024c576040517f08c379a000000000000000000000000000000000000000000000000000000000815260040161024390610e44565b60405180910390fd5b6000811161028f576040517f08c379a000000000000000000000000000000000000000000000000000000000815260040161028690610eb0565b60405180910390fd5b803073ffffffffffffffffffffffffffffffffffffffff1663b63ed4056040518163ffffffff1660e01b8152600401602060405180830381865afa1580156102db573d6000803e3d6000fd5b505050506040513d601f19601f820116820180604052508101906102ff9190610ee5565b1015610340576040517f08c379a000000000000000000000000000000000000000000000000000000000815260040161033790610f5e565b60405180910390fd5b3373ffffffffffffffffffffffffffffffffffffffff166108fc829081150290604051600060405180830381858888f19350505050158015610386573d6000803e3d6000fd5b5050565b600082116103cd576040517f08c379a00000000000000000000000000000000000000000000000000000000081526004016103c490610eb0565b60405180910390fd5b813073ffffffffffffffffffffffffffffffffffffffff1663b63ed4056040518163ffffffff1660e01b8152600401602060405180830381865afa158015610419573d6000803e3d6000fd5b505050506040513d601f19601f8201168201806040525081019061043d9190610ee5565b101561047e576040517f08c379a000000000000000000000000000000000000000000000000000000000815260040161047590610f5e565b60405180910390fd5b8073ffffffffffffffffffffffffffffffffffffffff166108fc839081150290604051600060405180830381858888f193505050501580156104c4573d6000803e3d6000fd5b505050565b60606000841161050e576040517f08c379a000000000000000000000000000000000000000000000000000000000815260040161050590610eb0565b60405180910390fd5b833073ffffffffffffffffffffffffffffffffffffffff1663f8b2cb4f856040518263ffffffff1660e01b81526004016105489190610f8d565b602060405180830381865afa158015610565573d6000803e3d6000fd5b505050506040513d601f19601f820116820180604052508101906105899190610ee5565b10156105ca576040517f08c379a00000000000000000000000000000000000000000000000000000000081526004016105c190610f5e565b60405180910390fd5b60006040516105d890610aff565b604051809103906000f0801580156105f4573d6000803e3d6000fd5b5090508073ffffffffffffffffffffffffffffffffffffffff1663df791e508585886040518463ffffffff1660e01b815260040161063493929190610fa8565b6000604051808303816000875af1158015610653573d6000803e3d6000fd5b505050506040513d6000823e3d601f19601f8201168201806040525081019061067c9190611138565b9150509392505050565b60008054906101000a900473ffffffffffffffffffffffffffffffffffffffff1681565b600083116106ed576040517f08c379a00000000000000000000000000000000000000000000000000000000081526004016106e490610eb0565b60405180910390fd5b823073ffffffffffffffffffffffffffffffffffffffff1663f8b2cb4f836040518263ffffffff1660e01b81526004016107279190610f8d565b602060405180830381865afa158015610744573d6000803e3d6000fd5b505050506040513d601f19601f820116820180604052508101906107689190610ee5565b10156107a9576040517f08c379a00000000000000000000000000000000000000000000000000000000081526004016107a090610f5e565b60405180910390fd5b60006107b482610af5565b90508073ffffffffffffffffffffffffffffffffffffffff166323b872dd3085876040518463ffffffff1660e01b81526004016107f393929190610fa8565b6020604051808303816000875af1158015610812573d6000803e3d6000fd5b505050506040513d601f19601f8201168201806040525081019061083691906111b9565b5050505050565b600047905090565b60008054906101000a900473ffffffffffffffffffffffffffffffffffffffff1673ffffffffffffffffffffffffffffffffffffffff163373ffffffffffffffffffffffffffffffffffffffff16146108d3576040517f08c379a00000000000000000000000000000000000000000000000000000000081526004016108ca90610e44565b60405180910390fd5b60008211610916576040517f08c379a000000000000000000000000000000000000000000000000000000000815260040161090d90610eb0565b60405180910390fd5b813073ffffffffffffffffffffffffffffffffffffffff1663f8b2cb4f836040518263ffffffff1660e01b81526004016109509190610f8d565b602060405180830381865afa15801561096d573d6000803e3d6000fd5b505050506040513d601f19601f820116820180604052508101906109919190610ee5565b10156109d2576040517f08c379a00000000000000000000000000000000000000000000000000000000081526004016109c990610f5e565b60405180910390fd5b60006109dd82610af5565b90508073ffffffffffffffffffffffffffffffffffffffff166323b872dd3033866040518463ffffffff1660e01b8152600401610a1c93929190610fa8565b6020604051808303816000875af1158015610a3b573d6000803e3d6000fd5b505050506040513d601f19601f82011682018060405250810190610a5f91906111b9565b50505050565b600080610a7183610af5565b90508073ffffffffffffffffffffffffffffffffffffffff166370a08231306040518263ffffffff1660e01b8152600401610aac9190610f8d565b602060405180830381865afa158015610ac9573d6000803e3d6000fd5b505050506040513d601f19601f82011682018060405250810190610aed9190610ee5565b915050919050565b6000819050919050565b610e65806111e783390190565b6000604051905090565b600080fd5b600080fd5b6000819050919050565b610b3381610b20565b8114610b3e57600080fd5b50565b600081359050610b5081610b2a565b92915050565b600060208284031215610b6c57610b6b610b16565b5b6000610b7a84828501610b41565b91505092915050565b600073ffffffffffffffffffffffffffffffffffffffff82169050919050565b6000610bae82610b83565b9050919050565b610bbe81610ba3565b8114610bc957600080fd5b50565b600081359050610bdb81610bb5565b92915050565b60008060408385031215610bf857610bf7610b16565b5b6000610c0685828601610b41565b9250506020610c1785828601610bcc565b9150509250929050565b600080600060608486031215610c3a57610c39610b16565b5b6000610c4886828701610b41565b9350506020610c5986828701610bcc565b9250506040610c6a86828701610bcc565b9150509250925092565b600081519050919050565b600082825260208201905092915050565b6000819050602082019050919050565b610ca981610b20565b82525050565b6000610cbb8383610ca0565b60208301905092915050565b6000602082019050919050565b6000610cdf82610c74565b610ce98185610c7f565b9350610cf483610c90565b8060005b83811015610d25578151610d0c8882610caf565b9750610d1783610cc7565b925050600181019050610cf8565b5085935050505092915050565b60006020820190508181036000830152610d4c8184610cd4565b905092915050565b6000610d5f82610b83565b9050919050565b610d6f81610d54565b82525050565b6000602082019050610d8a6000830184610d66565b92915050565b610d9981610b20565b82525050565b6000602082019050610db46000830184610d90565b92915050565b600060208284031215610dd057610dcf610b16565b5b6000610dde84828501610bcc565b91505092915050565b600082825260208201905092915050565b7f4f6e6c79206f776e65722063616e2074616b65207468697320616374696f6e00600082015250565b6000610e2e601f83610de7565b9150610e3982610df8565b602082019050919050565b60006020820190508181036000830152610e5d81610e21565b9050919050565b7f496e76616c696420616d6f756e74000000000000000000000000000000000000600082015250565b6000610e9a600e83610de7565b9150610ea582610e64565b602082019050919050565b60006020820190508181036000830152610ec981610e8d565b9050919050565b600081519050610edf81610b2a565b92915050565b600060208284031215610efb57610efa610b16565b5b6000610f0984828501610ed0565b91505092915050565b7f496e73756666696369656e742066756e64730000000000000000000000000000600082015250565b6000610f48601283610de7565b9150610f5382610f12565b602082019050919050565b60006020820190508181036000830152610f7781610f3b565b9050919050565b610f8781610ba3565b82525050565b6000602082019050610fa26000830184610f7e565b92915050565b6000606082019050610fbd6000830186610f7e565b610fca6020830185610f7e565b610fd76040830184610d90565b949350505050565b600080fd5b6000601f19601f8301169050919050565b7f4e487b7100000000000000000000000000000000000000000000000000000000600052604160045260246000fd5b61102d82610fe4565b810181811067ffffffffffffffff8211171561104c5761104b610ff5565b5b80604052505050565b600061105f610b0c565b905061106b8282611024565b919050565b600067ffffffffffffffff82111561108b5761108a610ff5565b5b602082029050602081019050919050565b600080fd5b60006110b46110af84611070565b611055565b905080838252602082019050602084028301858111156110d7576110d661109c565b5b835b8181101561110057806110ec8882610ed0565b8452602084019350506020810190506110d9565b5050509392505050565b600082601f83011261111f5761111e610fdf565b5b815161112f8482602086016110a1565b91505092915050565b60006020828403121561114e5761114d610b16565b5b600082015167ffffffffffffffff81111561116c5761116b610b1b565b5b6111788482850161110a565b91505092915050565b60008115159050919050565b61119681611181565b81146111a157600080fd5b50565b6000815190506111b38161118d565b92915050565b6000602082840312156111cf576111ce610b16565b5b60006111dd848285016111a4565b9150509291505056fe6080604052737a250d5630b4cf539739df2c5dacb4c659f2488d6000806101000a81548173ffffffffffffffffffffffffffffffffffffffff021916908373ffffffffffffffffffffffffffffffffffffffff16021790555034801561006457600080fd5b50610df1806100746000396000f3fe6080604052600436106100295760003560e01c80633c50eec11461002e578063df791e501461006b575b600080fd5b34801561003a57600080fd5b50610055600480360381019061005091906106bd565b61009b565b604051610062919061071f565b60405180910390f35b610085600480360381019061008091906106bd565b610261565b60405161009291906107f8565b60405180910390f35b600080600267ffffffffffffffff8111156100b9576100b861081a565b5b6040519080825280602002602001820160405280156100e75781602001602082028036833780820191505090505b50905084816000815181106100ff576100fe610849565b5b602002602001019073ffffffffffffffffffffffffffffffffffffffff16908173ffffffffffffffffffffffffffffffffffffffff1681525050838160018151811061014e5761014d610849565b5b602002602001019073ffffffffffffffffffffffffffffffffffffffff16908173ffffffffffffffffffffffffffffffffffffffff168152505060008060009054906101000a900473ffffffffffffffffffffffffffffffffffffffff1673ffffffffffffffffffffffffffffffffffffffff1663d06ca61f85846040518363ffffffff1660e01b81526004016101e6929190610936565b600060405180830381865afa158015610203573d6000803e3d6000fd5b505050506040513d6000823e3d601f19601f8201168201806040525081019061022c9190610aa5565b9050806001835161023d9190610b1d565b8151811061024e5761024d610849565b5b6020026020010151925050509392505050565b60608373ffffffffffffffffffffffffffffffffffffffff166323b872dd3330856040518463ffffffff1660e01b81526004016102a093929190610b60565b6020604051808303816000875af11580156102bf573d6000803e3d6000fd5b505050506040513d601f19601f820116820180604052508101906102e39190610bcf565b610322576040517f08c379a000000000000000000000000000000000000000000000000000000000815260040161031990610c7f565b60405180910390fd5b8373ffffffffffffffffffffffffffffffffffffffff1663095ea7b3737a250d5630b4cf539739df2c5dacb4c659f2488d846040518363ffffffff1660e01b8152600401610371929190610c9f565b6020604051808303816000875af1158015610390573d6000803e3d6000fd5b505050506040513d601f19601f820116820180604052508101906103b49190610bcf565b6103f3576040517f08c379a00000000000000000000000000000000000000000000000000000000081526004016103ea90610d14565b60405180910390fd5b6000600267ffffffffffffffff8111156104105761040f61081a565b5b60405190808252806020026020018201604052801561043e5781602001602082028036833780820191505090505b509050848160008151811061045657610455610849565b5b602002602001019073ffffffffffffffffffffffffffffffffffffffff16908173ffffffffffffffffffffffffffffffffffffffff168152505083816001815181106104a5576104a4610849565b5b602002602001019073ffffffffffffffffffffffffffffffffffffffff16908173ffffffffffffffffffffffffffffffffffffffff168152505060003073ffffffffffffffffffffffffffffffffffffffff16633c50eec18787876040518463ffffffff1660e01b815260040161051e93929190610b60565b602060405180830381865afa15801561053b573d6000803e3d6000fd5b505050506040513d601f19601f8201168201806040525081019061055f9190610d34565b905060008054906101000a900473ffffffffffffffffffffffffffffffffffffffff1673ffffffffffffffffffffffffffffffffffffffff166338ed173985838533426040518663ffffffff1660e01b81526004016105c2959493929190610d61565b6000604051808303816000875af11580156105e1573d6000803e3d6000fd5b505050506040513d6000823e3d601f19601f8201168201806040525081019061060a9190610aa5565b925050509392505050565b6000604051905090565b600080fd5b600080fd5b600073ffffffffffffffffffffffffffffffffffffffff82169050919050565b600061065482610629565b9050919050565b61066481610649565b811461066f57600080fd5b50565b6000813590506106818161065b565b92915050565b6000819050919050565b61069a81610687565b81146106a557600080fd5b50565b6000813590506106b781610691565b92915050565b6000806000606084860312156106d6576106d561061f565b5b60006106e486828701610672565b93505060206106f586828701610672565b9250506040610706868287016106a8565b9150509250925092565b61071981610687565b82525050565b60006020820190506107346000830184610710565b92915050565b600081519050919050565b600082825260208201905092915050565b6000819050602082019050919050565b61076f81610687565b82525050565b60006107818383610766565b60208301905092915050565b6000602082019050919050565b60006107a58261073a565b6107af8185610745565b93506107ba83610756565b8060005b838110156107eb5781516107d28882610775565b97506107dd8361078d565b9250506001810190506107be565b5085935050505092915050565b60006020820190508181036000830152610812818461079a565b905092915050565b7f4e487b7100000000000000000000000000000000000000000000000000000000600052604160045260246000fd5b7f4e487b7100000000000000000000000000000000000000000000000000000000600052603260045260246000fd5b600081519050919050565b600082825260208201905092915050565b6000819050602082019050919050565b6108ad81610649565b82525050565b60006108bf83836108a4565b60208301905092915050565b6000602082019050919050565b60006108e382610878565b6108ed8185610883565b93506108f883610894565b8060005b8381101561092957815161091088826108b3565b975061091b836108cb565b9250506001810190506108fc565b5085935050505092915050565b600060408201905061094b6000830185610710565b818103602083015261095d81846108d8565b90509392505050565b600080fd5b6000601f19601f8301169050919050565b6109858261096b565b810181811067ffffffffffffffff821117156109a4576109a361081a565b5b80604052505050565b60006109b7610615565b90506109c3828261097c565b919050565b600067ffffffffffffffff8211156109e3576109e261081a565b5b602082029050602081019050919050565b600080fd5b600081519050610a0881610691565b92915050565b6000610a21610a1c846109c8565b6109ad565b90508083825260208201905060208402830185811115610a4457610a436109f4565b5b835b81811015610a6d5780610a5988826109f9565b845260208401935050602081019050610a46565b5050509392505050565b600082601f830112610a8c57610a8b610966565b5b8151610a9c848260208601610a0e565b91505092915050565b600060208284031215610abb57610aba61061f565b5b600082015167ffffffffffffffff811115610ad957610ad8610624565b5b610ae584828501610a77565b91505092915050565b7f4e487b7100000000000000000000000000000000000000000000000000000000600052601160045260246000fd5b6000610b2882610687565b9150610b3383610687565b9250828203905081811115610b4b57610b4a610aee565b5b92915050565b610b5a81610649565b82525050565b6000606082019050610b756000830186610b51565b610b826020830185610b51565b610b8f6040830184610710565b949350505050565b60008115159050919050565b610bac81610b97565b8114610bb757600080fd5b50565b600081519050610bc981610ba3565b92915050565b600060208284031215610be557610be461061f565b5b6000610bf384828501610bba565b91505092915050565b600082825260208201905092915050565b7f546f6b656e7320636f756c64206e6f74206265207472616e736665727265642060008201527f66726f6d207468652073656e6465720000000000000000000000000000000000602082015250565b6000610c69602f83610bfc565b9150610c7482610c0d565b604082019050919050565b60006020820190508181036000830152610c9881610c5c565b9050919050565b6000604082019050610cb46000830185610b51565b610cc16020830184610710565b9392505050565b7f417070726f76616c2072657175657374206661696c6564000000000000000000600082015250565b6000610cfe601783610bfc565b9150610d0982610cc8565b602082019050919050565b60006020820190508181036000830152610d2d81610cf1565b9050919050565b600060208284031215610d4a57610d4961061f565b5b6000610d58848285016109f9565b91505092915050565b600060a082019050610d766000830188610710565b610d836020830187610710565b8181036040830152610d9581866108d8565b9050610da46060830185610b51565b610db16080830184610710565b969550505050505056fea26469706673582212204bf3b19e2c8edf7190a101434800d998155f35c730f0a6dae43de65e1f3b780364736f6c63430008110033a264697066735822122007b675bca56db351235a46cc3bbc3995a95115363d2f092ffde5858dabb600c864736f6c63430008110033",
  "linkReferences": {},
  "deployedLinkReferences": {}
}